:020000040000FA
:10000000C0260020CD010000AD2D0000AF2D000066
:1000100000000000000000000000000000000000E0
:10002000000000000000000000000000B12D0000F2
:100030000000000000000000B32D0000B52D0000FE
:10004000BD2D0000BF2D0000C12D0000C32D0000FC
:10005000C52D0000C72D0000C92D0000CB2D0000CC
:10006000CD2D0000CF2D0000D12D0000D32D00009C
:10007000D52D0000DD2D0000DF2D0000E12D00005A
:10008000E32D0000E52D0000E72D0000E92D000024
:10009000EB2D0000ED2D0000DF010000EF2D000032
:1000A000F12D0000F32D000000F002F800F063F8DD
:1000B0000CA030C8083824182D18A246671EAB467D
:1000C00054465D46AC4201D100F055F87E460F3EE5
:1000D0000FCCB6460126334200D0FB1AA246AB46EF
:1000E0003343184788790000A8790000103A02D3FA
:1000F00078C878C1FAD8520701D330C830C101D5C9
:1001000004680C60704700000023002400250026CE
:10011000103A01D378C1FBD8520700D330C100D5C3
:100120000B60704710B5672902D107F0B9F810BD10
:10013000642902D105F014FA10BD782902D105F026
:1001400045FA10BD732902D106F050FB10BD002006
:1001500010BD1FB5C046C0460098019906F04DF885
:1001600006F098FB04000020002106F0C9FFE060C3
:100170001FBD10B510BD06F012FF1146FFF7E9FFD5
:1001800002F0C3FC06F02AFF03B4FFF7F2FF03BC42
:1001900002F00BFE70B505460C46164602E00FCC89
:1001A0000FC5103E102EFAD2082E02D303CC03C581
:1001B000083E042E07D301CC01C5361F03E0217889
:1001C0002970641C6D1C761EF9D270BD07488047EB
:1001D00007480047FEE7FEE7FEE7FEE7FEE7FEE72B
:1001E00004480549054A064B7047000043020000D9
:1001F000A9000000C01A0020C0260020C01E002058
:10020000C01E002010B52048002101624169890705
:10021000CA0F012191404269D207D20F9140CAB260
:10022000416940698904890E51438002174A800E52
:10023000504305F007FC1649486010BD144800689B
:10024000704710B51348816B134A1161C16B0E489A
:1002500041600021016241698907CA0F0121914073
:100260004269D207D20F9140CAB2416940698904FC
:10027000890E51438002054A800E504305F0E2FB8F
:100280000349086010BD00000010004100127A0010
:100290000000002080FD03000012004141210906FA
:1002A000002801D0032000E00120086070474121B0
:1002B000090648607047012041210906886070479F
:1002C00041200006C06880B270474121090600281D
:1002D00000D0022008617047412000060069000636
:1002E000000E00D00120704701204121090608615D
:1002F00070470020D2E700B50120FFF7CFFF0020B4
:10030000FFF7E3FF00BD00003F4A3F4B0121803271
:10031000984201D1116070473B4B2033984201D184
:1003200011627047394A394B80329842F2D0374BCC
:1003300020339842F4D07047334A334B0121C943EC
:100340008032984201D1116070472F4B2033984280
:1003500001D1116270472D4A2C4B80329842F2D065
:100360002A4B20339842F4D0704781688022914311
:100370008160704781688022914381600021016023
:100380002022826081617047826880239A43826064
:100390000A68026082684B689B0113438A68920076
:1003A0001A43CB6809695B0013431943EF221140DC
:1003B0008160704720220129816802D091438160C9
:1003C00070471143FBE70121C16070474069C0B22B
:1003D000704780688006C00F704781688022114393
:1003E00081607047006870470160704740687047DF
:1003F0008068704781607047006970474069704746
:100400008069704781617047001000400020004003
:1004100070B51024002101604160DC4A42614262F3
:100420008162426321225206904202D1D84BD94ABE
:1004300007E04322120690420CD1D54BD54A4033F7
:1004400040320020602685005E515151401CA04280
:10045000F9D370BD11229206904204D1CC4BCD4A03
:1004600080338032EDE7CA4BCA4AC033C03205241C
:10047000E7E7F0B52122002310255206904201D172
:10048000C34A10E043221206904202D1C04A4032D1
:1004900009E011229206904202D1BD4A803202E068
:1004A000BB4AC0320525012426460F689E403740CE
:1004B000B74243D10F79012F0DD046614E79B6076F
:1004C0000DD59C001659B608B600165116590227CC
:1004D0003E4316510BE0076937430761EEE79E0084
:1004E0009759BF08BF0097519759274397514C79A7
:1004F000640704D59C00165904273E4303E09C0082
:1005000016590427BE4316514C79A40604D59C0005
:10051000165920273E4303E09C0016592027BE436E
:1005200016514C79640604D59C00165940273E4369
:1005300003E09C0016594027BE4316515B1CAB429A
:10054000B1D3F0BD91490160002101716221417177
:1005500070470246126800200A4200D0012070470E
:100560000068C0B270470246526800200A4200D0BC
:1005700001207047406880B270470A06920D01233F
:1005800012189B02D21811600A0A920010185A0021
:1005900080180160704710B50B069B0D0124CA43FB
:1005A0001B18A4021B191A60090A890008186100A7
:1005B0004018026010BD30B50B069B0D1C180123BE
:1005C0009B02E41823680D0AAD002D180120C0021B
:1005D0002D182868012A04D08B43236088432860A3
:1005E00030BD0B4323600843F9E741607047836ADD
:1005F0000B438362012A03D0426A0A434262704776
:10060000026A0A4302627047604A8262012901D08D
:100610004262704702627047012A03D0426B0A436C
:1006200042637047026B0A4302637047574A0129CD
:1006300001D0426370470263704754498163704739
:100640000246926B00200A4200D001207047F0B5AC
:100650000126504D002334469C400C4210D0002807
:1006600012D0012813D0022814D04A4C9F008034A5
:100670003C19276CBF08BF002764276C1743276409
:100680005B1C102BE7DBF0BD9C00641906E09C00AE
:100690006419EEE73F4C9F0080343C192768BF087F
:1006A000BF002760276817432760E9E77CB5044649
:1006B0001E460D466846FFF745FF684600950271E5
:1006C00069462046FFF7D5FE21204006844201D12D
:1006D000002004E043200006844205D10120324678
:1006E0002946FFF7B4FF7CBD11208006844201D16A
:1006F0000220F4E70320F2E77CB5044616460D46D7
:100700006846FFF71FFF00206946009508712046E4
:10071000FFF7AFFE206A28432062A06A2843A06248
:10072000324629462046FFF777FF212040068442C3
:1007300006D1002001222946FFF789FF072009E0A2
:1007400043200006844208D1012002462946FFF7D3
:100750007EFF082000F013F87CBD11208006844243
:1007600006D1022001222946FFF771FF0920F1E797
:10077000032001222946FFF76AFF0A20EAE7C106A3
:10078000C90E01208840044908607047FFFF00003F
:10079000003000410020004100E100E0E121490279
:1007A0000160602181800021C18003220181120249
:1007B0004281818170477047F8B50446006B0D4651
:1007C00040084000206386480221016140690126FB
:1007D00031468140834805F035F9009028680001D2
:1007E00005F0C8FC0746009805F0C4FC394605F042
:1007F000CDFB074605F07AFC009005F0BBFC3946BE
:1008000006F0DAFC062105F0B9FC05F095FB0022A4
:10081000754B05F043FB05F06DFB014600986062E7
:10082000A162E16AEE208143A888EA8810432A8900
:100830000A43E16A10430143E162206B6B49AA89D4
:100840000840698911430143206B08432063206BF2
:10085000304320630020F8BD10B5C36A1024234341
:10086000C3624907890E5207520F1143416310BDFD
:10087000C16A10229143C1627047016070470068ED
:1008800080B27047C16A01221143C16270470246BB
:10089000526800200A4200D0012070474160704732
:1008A0000246926900200A4200D001207047002AC7
:1008B00003D0826B0A4382637047426C0A434264EE
:1008C00070470246126C00200A4200D00120704797
:1008D000426C0A4342647047704710B5444A04466C
:1008E000116B4048022904D0116B032901D0FFF796
:1008F000A5FC214605F0A6F83E49086110BD10B5DB
:10090000FFF7EBFF3B498868032280088000104313
:100910008860002010BD37494A68D207FCD10860C2
:1009200070473448006880B27047324A01465268C6
:1009300000200A4200D0012070472E4A0029916809
:1009400001D0014300E0814391607047294A0029AA
:10095000916801D0014300E0814391607047254ACE
:100960000146D26800200A4200D001207047214988
:10097000CA680243CA607047016082691207FCD4EA
:100980000846704730B50B4605461C78002C03D04E
:1009900021462846FFF7F0FF5B1C002CF5D130BD47
:1009A0008169C906FCD40068C0B2704700B503462F
:1009B000FFF7B1FF184600BD10B503461C78002CA8
:1009C00002D02046FFF7A7FF5B1C002CF6D110BD1C
:1009D000084841688907FCD50068C0B2704700002C
:1009E0004011004100127A000000E03FFE3CFFFF92
:1009F00000100041006000400078704701707047AF
:100A000030B5002405E00D19ADB2455D1555641CE7
:100A1000A4B29C42F7D330BD70B5002405E00E1996
:100A2000155DB6B28555641CA4B29C42F7D370BD67
:100A300070B514000FD01A4A83049E18F26840075C
:100A400095B2184AC00A10430A4623462946FFF7C2
:100A5000E3FF2819F06070BD70B514000FD0104A84
:100A600083049E18B26A400795B20F4AC00A104329
:100A70000A4623462946FFF7C3FF2819B06270BD16
:100A800010B500290BD0064A83049B189A6A4007C8
:100A9000054CC00A5118204389B20818986210BD4D
:100AA00000020146000002460000034670477749F5
:100AB000002800D00120086070477449002801D048
:100AC000002000E00120086170477049002800D034
:100AD0000120886170476D49002800D00120C8615D
:100AE00070476A49022802D001200862704700203E
:100AF000FBE76649022802D0032800D001200863E2
:100B000070476249002804D0012802D0022800D092
:100B10000320486370475D494031002804D0012814
:100B200002D0022800D003200860704757494031A6
:100B3000002804D0012802D0022800D003204860F9
:100B4000704752494031002804D0012802D00228C1
:100B500000D00320086270474C494031002804D07F
:100B6000012802D0022800D0032048627047474A7B
:100B700080014032002904D0012902D0022900D08E
:100B80000321126B11507047404A80014032002906
:100B90000CD001290AD0022908D0032906D0042943
:100BA00004D0052902D0062900D00721526B11502C
:100BB0007047364A80018032002904D0012902D0D2
:100BC000022900D00321126B115070472F4A800177
:100BD000803200290CD001290AD0022908D003292B
:100BE00006D0042904D0052902D0062900D0072107
:100BF000526B115070472649002804D0012802D0BA
:100C0000022800D0032008607047214900280CD03A
:100C100001280AD0022808D0032806D0042804D0CE
:100C2000052802D0062800D00720486070471849E0
:100C3000002804D0012802D0022800D00320086137
:100C400070471349002804D0012802D0022800D0A0
:100C50000320486170470E4A0028106A02D0012321
:100C6000184301E040084000106202200029116A88
:100C700001D0014300E081431162704704490863D9
:100C800070470348006BC0B270470000001000417D
:100C90004011004170B50446082802D90020C04325
:100CA00070BDF948A604301805461021FFF7A6FECE
:100CB0002846FFF7A1FE0028FAD1F3481F2118307B
:100CC0003018FFF79BFEF14801218288A1408A433A
:100CD0008280EF4A002061005052EC49891D08557E
:100CE000012070BDF8B51C4616460F46054608287B
:100CF00002D90020C043F8BD012F06D0022F04D036
:100D0000042F02D00420C043F8BD6007810FE148E2
:100D1000FAD1002C0CD0012F02D0022F08D103E011
:100D200021210C42F0D003E0A10601D52106EBD52C
:100D30002846FFF7AFFF21090901D3483943AF0423
:100D400010383818FFF75AFE002E0AD1CF48D24A81
:100D50000688711C89B20180914202D10321890366
:100D60000180C948F03038184661C7480121381859
:100D70000646FFF743FE3046FFF73EFE0028FAD155
:100D8000C248E107C90F4288A940114341800121AF
:100D90008288A9408A438280BD4A0020690050525F
:100DA000BA49891D4855B84820303C182046FFF7FD
:100DB00023FE0028FAD068B2F8BD70B506460828B0
:100DC00002D90020C04370BDAF48B40410382018C9
:100DD000FFF712FE0007000F012802D00420C043D5
:100DE00070BDA948203020180546FFF705FE1328DE
:100DF00002D00220C04370BDA3480221201804463F
:100E0000FFF7FCFD2046FFF7F7FD0028FAD104E0CC
:100E10002046FFF7F1FD002806D02846FFF7ECFD3D
:100E20001428F5D1012070BD3046FFF733FF0320B1
:100E3000C04370BDF7B50D460746082802D900200B
:100E4000C043FEBD9048BC0410382018FFF7D4FD05
:100E50000007000F012802D00420C043FEBD8A48CD
:100E6000203020180646FFF7C7FD132802D00220C5
:100E7000C043FEBD29786A7808028018AA7800026B
:100E80008018EA7800028018421C32D0002830D046
:100E90000298002830D081482018FFF7AFFD7F4826
:100EA0006978401E2018FFF7A9FD7C48A978801EAC
:100EB0002018FFF7A3FD7948E978C01E2018FFF736
:100EC0009DFD764902982739611808626E48042111
:100ED00020180546FFF792FD2846FFF78DFD0028F4
:100EE000FAD16A4901204988B84008421CD0002044
:100EF000FEBD0B20C043FEBD0A20C043FEBD2846F8
:100F0000FFF77AFD000708D55F4808211830201840
:100F1000FFF774FD0C20C043FEBD3046FFF76CFDAB
:100F2000002804D1001FFEBD574810302518304658
:100F3000FFF762FD1728E2D10120FEBD70B506461D
:100F4000082802D90020C04370BD4F48B5041038AE
:100F50002818FFF751FD0007000F012802D00420D8
:100F6000C04370BD4848082128180446FFF746FDD5
:100F70002046FFF741FD0028FAD1444901208A8824
:100F8000B04082438A80498808420CD0002070BD5E
:100F90002046FFF731FD00070BD53046FFF77AFEFC
:100FA0000C20C04370BD384810302C183648203013
:100FB0002D182846FFF720FD0028E9D1012070BD3B
:100FC000F7B582B002981446082803D90020C04320
:100FD00005B0F0BD86042C4810383018FFF70CFD22
:100FE0000007000F012802D00420C043F0E7002CC6
:100FF0000CD02548203030180190FFF7FDFC172851
:1010000007D01C2805D00620C043E1E70D20C043CF
:10101000DEE7029801251D4F8540B888054211D0B2
:10102000194810303018FFF7E7FCC006C00EC106A3
:1010300021D51548102118303018FFF7DFFCB8888B
:10104000A843B8801548D93030180090FFF7D4FC79
:101050008006000C844200D904460098406887B29C
:101060000198FFF7C9FC17281AD01C2818D002983D
:10107000FFF710FEC7E7000718D50298FFF70AFE32
:101080000C20C043A4E70000100001460800002027
:101090001C010020FAFFFFFFF0FF000027010146BE
:1010A000FE484088054203D0BC4201D900208FE7AA
:1010B000BC42D2D8224603990298FFF7B9FCF848FF
:1010C000202130180646FFF799FC3046FFF794FCC4
:1010D0000028FAD1F14881880D438580204677E7C2
:1010E000F7B582B002981446082802D90020C04300
:1010F0006EE78704EA4810383818FFF77DFC0007D0
:10110000000F012802D00420C04361E7002C19D051
:10111000E4483818FFF770FC8006000CA04200D2AB
:101120000446DF48203038180090DE4820383E184A
:10113000706A85B20098FFF75FFC172815D01C284D
:1011400003D00CE00D20C04342E7002D1AD13046F9
:10115000FFF752FC7168800289B2884205D102987B
:10116000FFF798FD0620C04332E70299012088402E
:10117000CA494988084203D0002D03D1002027E73F
:10118000002DD5D0A54200D22C46224603990298C4
:10119000FFF762FCC248402138180546FFF72EFCD5
:1011A0002846FFF729FC0028FAD1204610E7FFB5B2
:1011B00083B003981E461546082803D90020C04373
:1011C00007B0F0BD8404B64810382018FFF714FCAF
:1011D0000007000F022804D0042802D00420C043D6
:1011E000EEE7002D1DD03078717800024018B178FC
:1011F00000024018F1780002C84202D10B20C0431F
:10120000DEE70C9800280FD0A548203020180746AC
:10121000FFF7F2FB42280AD0222808D00620C0435C
:10122000CEE70D20C043CBE70A20C043C8E79D4866
:101230003178F9382018FFF7E1FB9A487178FA38CD
:101240002018FFF7DBFB9748B178FB382018FFF731
:10125000D5FB9448F178FC382018FFF7CFFB904974
:101260000C98F031611808628E48203820180190DF
:10127000FFF7C2FB8006000C854200D905460399A2
:101280000120884000900198406886B23846FFF7F8
:10129000B3FB002808D0814900984988084206D04D
:1012A000B54204D900208BE70320C04388E7B5424C
:1012B000E9D82A4604990398FFF7BAFB7848202119
:1012C00020180746FFF79AFB75481830261838464D
:1012D000FFF792FB0028FAD17148103024182046FD
:1012E000FFF78AFBC006C00EC10605D530461021A7
:1012F000FFF784FB284663E70007F0D53046082156
:10130000FFF77CFB0C20C0435AE7FFB5002485B0F3
:101310000646082802D9601E09B0F0BD6048B50431
:1013200010382818FFF768FB04900007000F022808
:1013300004D0042802D00420C043EDE70798002819
:1013400005D059487700C05B002803D022E00D206B
:10135000C043E1E753482038281803905048203014
:1013600028180125B54002900398406A84B202987B
:10137000FFF742FB002806D048484088054207D0C6
:10138000002C03D006E00320C043C5E70020C3E7DC
:10139000002CE9D041480021801D81550498B204F9
:1013A00041073F48490F151802291FD0042957D07B
:1013B00021463046FFF764FB3B48C4532846402192
:1013C000FFF71CFB2846FFF717FB0028FAD1364829
:1013D000C15B091B0904090CC15305D02F48012228
:1013E000801D815D11438155204695E72E4CE05BC1
:1013F000002865D1082269463046FFF72DFB2846B4
:101400004021FFF7FBFA2846FFF7F6FA0028FAD149
:1014100068460178089801706846417808984170DC
:1014200068468178089881706846C1780898C170CC
:1014300068460E99007908800102684640790818CC
:101440000E9908806846807901026846C0790818BC
:10145000E05332E0224630460699FFF7FDFAADE749
:10146000114CE05B00282BD1022269463046FFF781
:10147000F3FA28464021FFF7C1FA2846FFF7BCFAE5
:101480000028FAD1684600780102684640780818BA
:1014900080B20649E05388420FD909E008000020D5
:1014A00010000146200201461C010020EA05000050
:1014B0003046FFF7EFFB9F482EE79F498020885575
:1014C000E45B07988442C5D90446C3E7F8B51446DF
:1014D0000646082802D90020C043F8BD964F974819
:1014E000BF1FB20410187D880B0005F0DDFD080554
:1014F000131719212A333C4121780120B0400129DA
:1015000002D0002903D033E02843788029E08543C6
:101510007D8026E0F540E807C00F19E0884801E02B
:10152000874820301018FFF767FA8002208018E003
:1015300020781F281CD8C1068048C90E001D10182D
:101540000DE07E48001F1018FFF756FAC006C00EC7
:10155000207006E021781F290AD8C906C90EFFF7B6
:101560004DFA0120F8BDFFF747FAC006C00E207003
:101570000920C043F8BDF8B51546082802D9002057
:10158000C043F8BD84046E4B6C4A6C48803BDC322F
:1015900024380427E618A2182018FF430B0005F092
:1015A00083FD084F050910421316444F63482978FC
:1015B000E43002E061482978E0302018FFF71EFA95
:1015C00031E0288810612EE0288810622BE0FFF7B8
:1015D00013FA0007000F01282DD13046FFF70CFA4F
:1015E000002802D00120C043F8BD544822211438FD
:1015F00020180546FFF702FA5048001F26180DE094
:101600003046FFF7F9F9000708D54C480821001DBE
:101610002018FFF7F3F90C20C043F8BD2846FFF768
:10162000EBF90028ECD10120F8BDFFF7E5F9000740
:10163000000F012801D03846F8BD29783046BDE7B3
:101640000920C043F8BDF8B514460646082802D95B
:101650000020C043F8BDB5043848384A384B243818
:10166000DC32EF182818AA180B0005F01DFD0D0834
:101670000D1215173060323E404248546000FFF7AB
:10168000BBF90009000102E02C48E43033E020708F
:101690003DE02A48E0302EE0106920702848D93813
:1016A0002818FFF7A9F920702548DA382818FFF71D
:1016B000A3F960702248DB382818FFF79DF9A07065
:1016C0001F48DC382818FFF797F9E0701FE0106A10
:1016D0001CE0FFF791F90007000F012821D11848FD
:1016E00080382818FFF788F910E078682080786A39
:1016F000208012480C302818FFF77EF9C7E7FFF763
:101700007BF9012805D00F497000085A208001207C
:10171000F8BD786AFAE7FFF76FF90007000F0128B4
:1017200002D00420C043F8BD0348805DAFE701202C
:10173000C043F8BD17FCFFFF0E0000202400014647
:10174000000201461C010020704770477047704737
:101750000078704701707047002070477047FE4A5C
:10176000002804D0002902D0D16090607047FB4867
:101770009060FB48D0607047F74A002804D00029E9
:1017800002D0516110617047F6481061F64850610F
:10179000704710B5F04A1388DC05FDD5002804D049
:1017A000002902D0D161906110BDF0489061F048ED
:1017B000D06110BD10B5E84A13889C05FDD50028FE
:1017C00004D0002902D0D161906110BDE948906138
:1017D000E948D06110BD0020C04370470020C043DD
:1017E000704710B5E548FFF707F90446E3481030A5
:1017F000FFF702F90002001980B210BD10B5C1B2A6
:10180000040A09090901DD48FFF7F8F8DB48214619
:101810001030FFF7F3F810BDD84810B5001FFFF7E0
:10182000EBF80446D5480C30FFF7E6F80002001943
:1018300080B210BD10B5C1B2040AD048090909012F
:10184000001DFFF7DBF8CD4821460C30FFF7D6F836
:1018500010BDF0B593B0CA48FFF7CEF81190C84854
:10186000401EFFF7C9F8C64C1090A41E2046FFF793
:10187000C3F8651E0F902846FFF7BEF80E90A01D16
:10188000FFF7BAF80D90601DFFF7B6F80C90BC4852
:101890000830FFF7B1F80B90B948C01DFFF7ACF85E
:1018A000B74E0A90B61D3046FFF7A6F80990E01D26
:1018B000FFF7A2F80890B01DFFF79EF80790701D83
:1018C000FFF79AF80690301DFFF796F80590F01C88
:1018D000FFF792F80490AA481030FFF78DF8A84F50
:1018E00003900F373846FFF787F80290781EFFF70E
:1018F00083F80190F01DFFF77FF800908021A14848
:10190000FFF77CF89F48FFF777F8A01C1199FFF7C5
:1019100075F8601C1099FFF771F820460F99FFF7D2
:101920006DF828460E99FFF769F8A01D0D99FFF78D
:1019300065F8601D0C99FFF761F8B01C0B99FFF773
:101940005DF8701C0A99FFF759F830460999FFF7BE
:1019500055F8E01D0899FFF751F8B01D0799FFF7FA
:101960004DF8701D0699FFF749F8301D0599FFF7EE
:1019700045F8F01C0499FFF741F8781C0399FFF72C
:101980003DF838460299FFF739F8781E0199FFF7BC
:1019900035F8F01D0099FFF731F813B0F0BDF8B538
:1019A0000D4606460024FFF754FF002E14D00022F7
:1019B000B05C521C001952B244B2082AF8DB102C59
:1019C00017DC714F0024A004315DC019FFF716F831
:1019D000641C64B2082CF6DB002D19D000210846E7
:1019E0002A5C401C511840B249B20828F8DB102983
:1019F00002DD0020C043F8BD634E00242036A00461
:101A0000295D8019FEF7FAFF641C64B2082CF6DB2E
:101A10000020F8BD70B50C460246002108464D1E58
:101A2000130005F041FB0906091511181C2E2E2084
:101A30002E00FFF70EFF22E0002C02D021462046A8
:101A40000831FFF7ACFF70BD2088FFF7F3FE16E00A
:101A5000FFF7E2FE05E02088FFF7D0FE0FE0FFF77A
:101A6000C0FE20800BE03C4882782270C278627011
:101A70000279A2704279E270807920716171002050
:101A800070BD284670BD10B504463D484130FEF794
:101A9000B3FF20703A483D300068608010BD10B53B
:101AA0000446017836484130FEF7A8FF3449608883
:101AB0003D31086010BD10B53248FEF79DFF10BDE6
:101AC00070B50446C720044202D00020C04370BD58
:101AD0002C4D2846FEF790FF204301462846FEF78E
:101AE0008DFF002070BD10B504462548FEF784FF29
:101AF00020702348401EFEF77FFF60702048801E44
:101B0000FEF77AFFA0701E48C01EFEF775FFE0705A
:101B10001B48001DFEF770FF20711948C01CFEF71E
:101B20006BFF607116480830FEF766FFA07314481B
:101B3000C01DFEF761FFE0731148801DFEF75CFFDA
:101B400020740F48401DFEF757FF60740C480C309E
:101B5000FEF752FFA07219E0200000204917000094
:101B60004B1700004D1700004F17000051170000E1
:101B700055170000591700005D17000004210046AA
:101B80000360004600230046000201465F480B3018
:101B9000FEF732FFE0725D480A30FEF72DFF20733A
:101BA0005A480930FEF728FF607358481030FEF796
:101BB00023FFA07155480F30FEF71EFFE071534818
:101BC0000E30FEF719FF207250480D30FEF714FF5B
:101BD00060724F480178A1744178E1748178217571
:101BE000C07860754A48401E0078A07510BD10B5D9
:101BF000044601784548FEF701FF44486178401EDD
:101C0000FEF7FCFE4148A178801EFEF7F7FE3F4834
:101C1000E178C01EFEF7F2FE3C482179001DFEF778
:101C2000EDFE3A486179C01CFEF7E8FE3748A17B1B
:101C30000830FEF7E3FE3548E17BC01DFEF7DEFE0F
:101C40003248217C801DFEF7D9FE3048617C401D62
:101C5000FEF7D4FE2D48A17A0C30FEF7CFFE2B48BC
:101C6000E17A0B30FEF7CAFE2848217B0A30FEF7E6
:101C7000C5FE2648617B0930FEF7C0FE2348A179E6
:101C80001030FEF7BBFE2148E1790F30FEF7B6FEBB
:101C90001E48217A0E30FEF7B1FE1C48617A0D30E5
:101CA000FEF7ACFE1A48A17C0170E17C4170217DF9
:101CB0008170617DC1701649A07D491E087010BDFC
:101CC00010B50C46030005F0EFF90604080C1014DB
:101CD000181D0846FFF78BFF12E00846FFF703FFC9
:101CE0000EE00878FFF7ECFE10BDFFF7E4FE207071
:101CF00006E00846FFF7D3FE02E00846FFF7C3FE02
:101D0000002010BD0020C04310BD0000036000464D
:101D10001900002070B504460120800320614500B1
:101D200029462046FEF729FC012000F047FF2946FE
:101D30002046FEF730FC012000F040FF70BDF1B5F9
:101D400000200126F603044677104500314600982E
:101D5000FEF713FC012000F031FF31460098FEF73A
:101D60001AFC012000F02AFF39460098FEF7F1FB2B
:101D70002843641C102CE8D3F8BD70B5044601203C
:101D800080036061012000F019FF0125ED03294661
:101D90002046FEF7F2FB012000F010FF2946204606
:101DA000FEF7F9FB012000F009FF70BDF7B51446FE
:101DB0002020001B81400127BF030D467E0018E054
:101DC0000098002D394602DAFEF7D7FB01E0FEF756
:101DD000E2FB012000F0F2FE31460098FEF7CDFB59
:101DE000012000F0EBFE31460098FEF7D4FB6D00B9
:101DF000641E002CE4D1FEBD70B50C4600210546E2
:101E00002022C943FFF7D2FF042206212846FFF70C
:101E1000CDFF052207212846FFF7C8FF05222146EE
:101E20002846FFF7C3FF2846FFF7A7FF2846FFF71E
:101E300086FF04462846FFF76DFF204670BD10B5AB
:101E4000432001210006FFF7D7FF4007C00F10BD58
:101E500070B50C461646002105462022C943FFF7FF
:101E6000A5FF042205212846FFF7A0FF0522072130
:101E70002846FFF79BFF052221462846FFF796FFDD
:101E8000022211462846FFF791FF102231462846CC
:101E9000FFF78CFF2846FFF73DFF70BD0122D202FD
:101EA000904203D02121C90108400246002143206D
:101EB0000006CDE77CB514460D4621430091012173
:101EC0006A4611716946FEF7D4FA0122214610468E
:101ED000FEF7BDFB012229461046FEF7B8FB7CBD8C
:101EE00010B5FE4CFE482178FEF788FDFC4861786D
:101EF000401EFEF783FDFA48A178801EFEF77EFDA6
:101F0000F748E178C01EFEF779FDF54808342178DE
:101F1000001FFEF773FDF2486178401FFEF76EFD6B
:101F2000EF48A178801FFEF769FDED48E178C01FFA
:101F3000FEF764FDEA48241F21780838FEF75EFDAD
:101F4000E74861780938FEF759FDE548A1780A3875
:101F5000FEF754FDE248E1780B38FEF74FFD10BD67
:101F600010B5E04C80212046FEF748FD2046FEF7E4
:101F700043FDFFF7B5FFD94CD948353421781038E7
:101F8000FEF73CFDD64861781138FEF737FDD4489E
:101F9000A1781238FEF732FDD148E1781338FEF708
:101FA0002DFDCF4821790C38FEF728FDCC4861790A
:101FB0000D38FEF723FD10BD10B5CA4C8021204618
:101FC000FEF71CFD2046FEF717FDC44CC44835340F
:101FD00021781038FEF712FDC14861781138FEF7FC
:101FE0000DFDBF48A1781238FEF708FDBC48E17826
:101FF0001338FEF703FDBA4821790C38FEF7FEFCD2
:10200000B74861790D38FEF7F9FC10BDB34B10B538
:10201000DB1FB54C5C62B54C9C62B54CDC620028A1
:1020200000D05862002900D09962002A00D0DA62FC
:1020300010BD30B5A94B0120DB1F996B08704870AB
:10204000062088700020C8705A6B120E0A715A6BF5
:10205000120C4A719A8E120A8A719A8ECA71996B01
:10206000802208818A72C872996B1A460873487375
:102070008873C873087448748874C8740875487580
:102080008875C875087648768876C8763C321478A4
:102090000C7754784C7794788C77D478CC770C463E
:1020A0001579203425705279627006228C18521CE2
:1020B000D2B22077102AF9D39A6B00215418203419
:1020C000491CC9B220734029F8D39A6B00215418D7
:1020D0006034491CC9B220738029F8D3986B6321FE
:1020E000E03001738222427353228273C17330BD88
:1020F000FEB5FFF79EFF79483522C01F836BF021A4
:10210000CA540122F121CA54F221CA543D22F321BA
:10211000CA540722F421CA540122F521CA540146A7
:102120003C310A78F621CA5401463C314A78F721FD
:10213000CA5402463C329478F822D45402463C32C7
:10214000D478F922D45402463C321479FA22D45479
:1021500002463C325479FB22D4540C21FC22D15447
:102160000027FD21CF54122204463946423406E0AE
:102170009E18E036521C491C357392B289B2655CD8
:10218000002DF5D1846B554BA6183533DD78E0363C
:102190003573521C92B2A6181D79E0363573521C65
:1021A00092B2A5185B79E0352B73521C92B2CB1C0E
:1021B000511A0919E0310B72816B37238C18E03406
:1021C0002373521C92B28C18521C92B28D180623A3
:1021D000E03423730124E0352C73521C92B28D1825
:1021E0000324E035521C2C7392B28C18E034237314
:1021F000521C92B28C180F23E0342373521C92B2FB
:102200008B183A24E0331C73521C92B28B18E033C3
:102210003B24521C1C7392B2FF238C18E0342373AE
:10222000521CFF2492B2393404E08D18E035521C60
:102230002F7392B2A242F8D369460B714B718B7126
:10224000CB71432100918922816B01AB9200807890
:10225000FEF7ADFFFEBDFEB5FFF7EBFE1F4C002005
:10226000E41FE11D20560B462933FF2703284AD0DF
:10227000042848D06846077147718771C771A26BFF
:102280003520F025A8540120F125A8540320F2257B
:10229000A8543D20F325A8540720F425A854012074
:1022A000F525A8540D48F62535300078A8540B487C
:1022B000F72535304078A8540848F825353080781F
:1022C000A8540648F9253530C078A8540348FA25A3
:1022D00035300079A854014835300BE04700002024
:1022E0001360004600230046E11E0000611F00004D
:1022F000B91F00004079FB25A8546D46ED791020E8
:10230000FF2D16D039E0A06B00228272C2720A78CB
:1023100002734A7842738A788273CA78C2731A78D1
:10232000684602715A7842719A788271DA78C2717D
:10233000A5E73225FC2085540425FD2085540E7820
:10234000FE2086544E78FF2086548878AE01B05423
:10235000C978701C81543621401C8154401C85541E
:102360001978401C81545978401C81549978401C3C
:102370008154D978401C81541C2013180C21E0335F
:102380001973401C13180021E0331973F94D401CD8
:1023900005E01618E036401C337380B2491C6B5CB4
:1023A000002BF6D1A36BF34A1E18921FD578E036A6
:1023B0003573401C80B21E181579E0363573401C09
:1023C00080B21D185279E0352A73401C82B2C81CB5
:1023D000511AC918E0310872A06B37218318E03315
:1023E0001973521C91B243180822E0331A73491C26
:1023F00089B243180122E0331A73491C89B2431889
:102400000322E0331A73491C89B243180622E033D1
:102410001A73491C89B243180F22E0331A73491CFE
:1024200089B242183A23E0321373491C89B2421828
:102430003B23E032491C137389B242181F23E03258
:102440001373491C89B242182123E0321373491CCB
:1024500089B24218E0321773491C0022FF2389B267
:10246000393303E04518E0352A73491C9942F9DBFA
:1024700043200090892201AB9200A078A16BFEF767
:1024800096FEFEBD1CB5FFF7D4FDBA4800214238C8
:10249000806B35228172C172F0210A540122F12130
:1024A0000A540422F2210A543D23F3210B5407223B
:1024B000F4210A540122F5210A54AE49F622891F5B
:1024C0000B7813544B78F72213548B78F82213545B
:1024D000CB78F92213540B79FA2213544A79FB2151
:1024E0000A543222FC210A540422FD210A54A14933
:1024F0003B390A78FE210A549E493B394A78FF212C
:102500000A549C493B398A78FF2101310A54994980
:102510003B39CA78FF2102310A543622491C0A5439
:102520000422491C0A549349FF2212390B780532C0
:1025300013544B78521C13548B78521C1354CA7882
:10254000FF2108310A54FF22491C0A541D2100238F
:10255000FF2239324418E034491C23739142F9DBDD
:10256000FF206946087148718871C8714320009046
:10257000804889224238816B01AB92008078FEF757
:1025800016FE1CBD7FB57B4C7B4A423CA078810483
:102590008918496A0A04120C27D001A9009102ABDC
:1025A000A16BFEF7B2FE82B26846808843283CD118
:1025B000A06B21463C31037F0D78AB4215D1457F9E
:1025C0004B789D4211D1837F8D78AB420DD1C37F73
:1025D000CD78AB4209D1034620331D780E79B54240
:1025E00003D15B7849798B4202D0002004B070BDE2
:1025F000F03000258118F03915E00278332A3ED0FA
:1026000008DC002A15D0012A18D0032A1AD0062A7D
:1026100006D125E0352A0ED0362A3FD0FF2A06D033
:102620004278801C80188842E7D368B2DEE708460B
:10263000F9E7401CF7E78578C01CF4E74D4A83783A
:10264000333A2EE04B4A43788678373A1670C6788C
:102650005670067996704679801DD670C0180CE0C9
:10266000444B427886782F3B1E70C6785E700679A0
:102670009E704679801DDE708018001FD3E7827837
:10268000A261C37812029A18A261037912029A1801
:10269000A261437912029A18A26109E0354A83784F
:1026A000123A1370C3785370037993704379D370DF
:1026B000801DB8E72F4800214238C161052202621F
:1026C0004170704770B52B4C0125423C6157002684
:1026D00022469057022917DAE269216A914223D2F1
:1026E000012804D0022805D0042805D102E0FFF714
:1026F000FFFC01E0FFF7AFFDE661E069401D2062ED
:102700006078401C60700FE0012804D0022805D0DA
:10271000042807D102E02670002503E0FFF7E8FC5B
:1027200001202070FFF7C6FF284670BDF8B5134E94
:102730003046FEF761F9054603213046FEF75EF9A3
:102740000C4B0F483B3BDC1F009011220DA1A078E1
:10275000FEF72DFD074629463046FEF74FF90D37A7
:102760001AD0FFF78FFEE069E169091A0229FBD34D
:102770000020F8BD820000200002014644600046AF
:1027800088130000434845434B5F49505F434F4E19
:10279000464C4943540000000120EAE7F8B5B64C26
:1027A000207806281ED0A078B44980044018FEF78F
:1027B00023F9222805D0002344220221A078FEF725
:1027C00091FA0125FFF7DEFEC1B20022A256AA4807
:1027D00000260127C01D130004F066FC05060D1C31
:1027E000314C2F000520C4E7067046708670C67015
:1027F000FFF77EFC5EE002291CD1A16B0A7C02700F
:102800004A7C42708A7C8270C97CC170FFF723FDCC
:1028100002204BE005290BD1FFF788FF002801D0EB
:10282000606A3FE0FFF746FFE06A8047267004E0F9
:1028300006293DD0FFF746FF0546284699E7A169DE
:1028400004254A1CF9D0E26949089142F5D28A4927
:102850000278C91C0A7042784A7082788A70C078FF
:10286000C870606B401C6063FFF7F5FCFFF722FF48
:1028700004201BE004250529DAD17F496670C91CB4
:102880000A7803789A420BD14A7843789A4207D162
:102890008A7883789A4203D1C978C078814202D07D
:1028A000A06A03258047FFF705FF03202070C4E7D7
:1028B000FFF700FF2770C0E710B56F4CA078FEF758
:1028C000E9F90620207010BDF3B56D4F83B00646C0
:1028D000002538460095FEF78FF8674C3C34207091
:1028E000781EFEF789F86070B81EFEF785F8A070B4
:1028F000F81EFEF781F8E070381DFEF77DF82071B4
:10290000F81CFEF779F86071014620786278E37868
:102910001043A2781A4310432279104308431FD171
:10292000257008206070DC20A070E57025712946B4
:1029300065713846FEF762F86178781EFEF75EF83A
:10294000A178B81EFEF75AF8E178F81EFEF756F89F
:102950002179381DFEF752F86179F81CFEF74EF820
:10296000454FBE700498B863E178227945488918CC
:1029700062791018081878636846017840480C4658
:102980001030FEF73BF868464078029001463C481C
:102990000F30FEF733F868468078019001463848DA
:1029A0000E30FEF72BF86846C678354831460D30B4
:1029B000FEF724F8324821461030FEF71FF8304861
:1029C00002990F30FEF71AF82D4801990E30FEF7E4
:1029D00015F82B4831460D30FEF710F828482146EF
:1029E0000830FEF70BF826480299C01DFEF706F8DE
:1029F00023480199801DFEF701F821483146401D0A
:102A0000FDF7FCFFFFF756FE3D7005B0F0BD1A481C
:102A1000C169491CC16170471749C91D0A78027014
:102A20004A7842708A788270C978C17070471249BA
:102A30000B310A7802704A7842708A788270C978BD
:102A4000C17070470C490F310A7802704A784270A1
:102A50008A788270C978C1707047074913310A7843
:102A600002704A7842708A788270C978C170704763
:102A70000148806970470000400000203000014696
:102A8000036000467856341210B5502167A002F05A
:102A9000D5FC10BD10B500F015FA0446811C6AA0E3
:102AA00002F0CCFC6EA002F0C9FC2034207E01288C
:102AB00008D071A172A002F0C1FC76A166A002F05C
:102AC000BDFC10BD7FA1F5E738B500F0FBF9044669
:102AD0006FA002F0B3FC6FA15FA002F0AFFC7BA07F
:102AE00002F0ACFC7CA002F0A9FC81A002F0A6FCE4
:102AF0008BA00090637F227FE17E8BA002F09EFC82
:102B000064A155A002F09AFC38BD1FB500F0DAF9B7
:102B100000F066F88DA003C8019100908BA103C955
:102B200003910290FDF78AFB8A4902F08BFF8A49E4
:102B3000086008202070894860802046FEF7AFFFBB
:102B400002A96846FEF72BFF00F072F900F0BCF90D
:102B5000834800F00AFB00F0AAFA00F001FB00F045
:102B6000BEFBFFF7B1FFFFF795FF00F0C1FA00F0E1
:102B70005DFAFFF789FF7A490120083908700020C3
:102B800000F06CF9764B0322DB1F7649764800F0A3
:102B900055FF764D00260024502000F0FDFF641CF8
:102BA000E4B2032CF8D328780028F4D0002000F0F9
:102BB0006DF9012000F06AF92E70ECE701B5684864
:102BC00000990838416041680029FCD108BD64487B
:102BD00008384168002902D04168491E41607047A9
:102BE00010B50320FDF77DFF624961484861FDF79C
:102BF00028FB00F09DFC00F01AFDFDF71FFB7D2176
:102C0000C90002F01FFF5C49401E88420CD85B4996
:102C100048615B480722C3691B021B0A4C0423431B
:102C2000C361002088610A6110BD00002023204894
:102C30005454502053657276657220506F72743A06
:102C40002025640D0A000000202D2044657669636C
:102C500065206E616D653A2025730D0A0000000045
:102C6000202D204E6574776F726B207365747469C4
:102C70006E67733A200D0A00537461746963000033
:102C8000092D2049502061737369676E3A202573BE
:102C90000D0A00003D3D3D3D3D3D3D3D3D3D3D3D41
:102CA0003D3D3D3D3D3D3D3D3D3D3D3D3D3D3D3D54
:102CB0003D3D3D3D3D3D3D3D3D3D3D3D3D3D3D3D44
:102CC0003D0000004448435000000000205B57379F
:102CD0003530305D00000000204170706C69636128
:102CE00074696F6E204578616D706C65730D0A00B4
:102CF000205245535466756C2057656220536572A7
:102D0000766572202620492F4F20436F6E74726FB4
:102D10006C2062792052455354204150490D0A00DD
:102D2000446576656C6F7000204669726D776172DC
:102D3000652076657273696F6E3A2025642E25646E
:102D40002E25642025730D0A0000000002020202F5
:102D5000020202021027000000200046C409000001
:102D6000940000202C0900202C010020E600002007
:102D70000001060000100041FFFFFF0000E000E03E
:102D800004ED00E010B5C0B2FDF710FE10BD10B5A7
:102D9000FDF71EFEFDF70AFE10BD0020C043704780
:102DA00010B5C0B2FDF702FE10BDFEE770477047D8
:102DB0007047704710B5FFF70AFF10BD70477047A6
:102DC000704770477047704770477047704770474B
:102DD0007047704710B500F0C9FB10BD70477047D1
:102DE000704770477047704770477047704770472B
:102DF00070477047FEB50446022818D22E4E650073
:102E0000705B00900120694608712C48A700C059EA
:102E1000FDF72FFB2948715B801E025D801E005D5F
:102E2000FDF715FC2548715BC059FDF7A6FBFEBDFB
:102E300010B5234864218162C1620163416301616D
:102E400001229203432051000006FFF733F80020CF
:102E5000FFF7D0FF0120FFF7CDFF10BD10B502280E
:102E600007D2154A4100515A144A80001058FDF704
:102E700092FB10BD10B5022807D20F4A4100515AEB
:102E80000E4A80001058FDF778FB10BD022808D2CA
:102E90000A49820089584A68074B4000185A424044
:102EA0004A60704710B5044A4100515A034A8000F5
:102EB0001058FDF758FB10BDB0720000A4000020B0
:102EC00040300041AD487047F8B5AC4C76202070DA
:102ED000002060701921A01C02F035FD0D22A8A170
:102EE000A01C02F0D3FC0022E27608212177022008
:102EF00060772046C02320300371A82444710B253D
:102F000085710526C6710372447285720126C672E8
:102F1000FF260673467386739D4EC2730674370A86
:102F200047748374C474057571234375831C1E75BF
:102F3000340A5C75027642768176C17601774177F4
:102F400032211E3002F0FFFC8C480F2160300174EA
:102F5000002141740322811C0A7400224A740F214B
:102F6000C9430175090A4175F8BD10B502F08EFC20
:102F700010BD10B502F08AFC10BD10B50446014624
:102F80007E4806221E30FFF7F4FF7C480422A11D74
:102F90002430FFF7EEFF7948214604220E31283015
:102FA000FFF7E7FF7548214604220A312C30FFF76E
:102FB000E0FF72482146042212313A30FFF7D9FF70
:102FC0006E48A17D2030012902D00121017610BD7B
:102FD0000021FBE710B56949044606221E31FFF7C0
:102FE000C4FF664904222431A01DFFF7BEFF6349D8
:102FF0002046042228310E30FFF7B7FF5F492046F4
:1030000004222C310A30FFF7B0FF5C49204604222D
:103010003A311230FFF7A9FF58482030007E0028CF
:1030200001D0022000E00120A07510BD00B589B0DC
:1030300003A90120FEF744FE6846427C017CC07B68
:103040006B4607C36846837B427B017B51A002F03D
:10305000F5F96846407D00906846037DC27C817C1E
:1030600056A002F0EBF96846407F00906846037F67
:10307000C27E817E57A002F0E1F96846407E009052
:103080006846037EC27D817D58A002F0D7F908A86A
:103090004078009008A803786846C27F817F59A0D5
:1030A00002F0CCF95DA002F0C9F909B000BD10B57D
:1030B000324C5B48A17FFDF7A1FC5948E17F401EDF
:1030C000FDF79CFC564820342178801EFDF796FCC5
:1030D00053486178C01EFDF791FC5148A178001D4E
:1030E000FDF78CFC4E48E178C01CFDF787FC10BD55
:1030F00010B5224C86B0214606221E316846FFF7E5
:1031000034FF214601A8042224310230FFF72DFFAD
:10311000214603A8042228310230FFF726FF21466A
:1031200002A804222C310230FFF71FFF214604A819
:1031300004223A310230FFF718FF2034207E0028A5
:1031400001D0022000E00120694688750020FEF7CA
:10315000B7FD06B010BD0948203001210176704747
:10316000064820300021017670470146034810B51B
:1031700006221E3002F08AFB10BD00002C11002038
:1031800057373530305F446576696365000000006D
:10319000881300002023204D41433A202530325827
:1031A0003A253032583A253032583A253032583A9A
:1031B000253032583A253032580D0A002023204954
:1031C000503A2025642E25642E25642E25640D0A90
:1031D0000000000020232047573A2025642E256454
:1031E0002E25642E25640D0A0000000020232053A4
:1031F0004E3A2025642E25642E25642E25640D0A62
:1032000000000000202320444E533A2025642E2540
:10321000642E25642E25640D0A0000000D0A0000AE
:10322000036000460246002001461346CB40012BB6
:1032300004D0491CC9B20429F7D370470846704727
:10324000F8B50446FFF73EFE0746703778783978C0
:10325000000208432146814323D12046FFF7E2FFC5
:103260000546F878B978000208432146AE4E8143FE
:1032700018D0787939790002084384431ED000249D
:103280006F00A948AE00A94DC15BA8590123224691
:10329000FDF70CFA002C04D0A348C15BA859FDF738
:1032A0007AF9F8BDFDF725F86800315A9F48AA0061
:1032B000805803230022FDF7F9F9F8BD0124DFE768
:1032C00010B50446FFF7FEFD703041780278080221
:1032D0001043844301D0002010BD012010BD10B563
:1032E0000120FFF7EDFF002802D00120FFF7A8FF23
:1032F0000220FFF7E5FF002802D00220FFF7A0FF21
:103300000420FFF7DDFF002802D00420FFF798FF1C
:103310000820FFF7D5FF002802D00820FFF790FF14
:1033200010BD70B50C460546FFF7CCFD012170308D
:10333000012C04D0002C08D00021084670BD427832
:10334000037812021A432A4304E0427803781202F7
:103350001A43AA430270120A4270EEE770B50D4696
:103360000646FFF7AFFD01247030012D07D0002D78
:103370000BD000243046FFF763FF204670BD417933
:10338000027909021143314304E0417902790902CB
:103390001143B1430171090A41713046FFF750FFF3
:1033A000E8E7F8B50E460746FFF78CFD0446703493
:1033B0000125012E07D0002E0FD000253846FFF73B
:1033C0003FFF2846F8BD00213846FFF7C7FFE078E9
:1033D000A17800020843384304E0E078A1780002B5
:1033E0000843B843A070000AE0703846FFF728FF92
:1033F000E4E710B50446FFF765FD7030C1788278C8
:1034000008021043844301D0002010BD012010BDEC
:1034100010B50446FFF756FD703041790279080275
:103420001043844301D0002010BD012010BD10B511
:10343000FCF73DFFFCF73FFFFCF74EFF0028FBD1F8
:10344000FCF73EFF10BD70B50E460446FFF73AFD8F
:10345000054600207035308069782A7809021143CA
:1034600022468A431AD12046FFF7DCFEE978AA7883
:103470000902114322468A4311D069792A79090247
:1034800011438C43284A29490FD04300D25A800067
:1034900008581146FDF75DF83080012070BD2349C2
:1034A000091F085CFFF7C3FFF6E74300D25A80000C
:1034B00008581146FDF757F8EEE770B50D4604467B
:1034C000FFF700FD70304278037812021A430021A2
:1034D0002346934325D1C278837812021A432242AD
:1034E0001FD142790379100218432246824318D132
:1034F0002046FFF797FE2B880B490C4A002B02D081
:10350000012B07D00CE043008000C95A1058FDF78A
:1035100042F805E043008000C95A1058FDF72DF825
:103520000121084670BD0000B4720000B000002008
:1035300030B50124334985B020030860324D284658
:10354000FCF7E2FE002131480491029100900194C1
:10355000039469462846FCF717FF01212846FCF72B
:1035600029FF2846FCF739FF05B030BD70B5264C61
:103570002046FCF72BFF00282CD02046FCF723FF29
:10358000234CA088401CA0802248002500780028F9
:1035900008D0E088401C80B2E080642802D301207B
:1035A000A070E580A0881C49884205D3A5802078BA
:1035B000401C2070FFF72BFA20783C2803D325709D
:1035C0006078401C607060783C2803D36570A06808
:1035D000401CA0600C4C20342046FCF7F7FE00286D
:1035E00002D02046FCF7EFFE70BD094880687047A6
:1035F000074840787047064800787047044880883C
:103600007047000000E100E00010004080BB0000B7
:10361000E40000208C000020E70300001FB568468E
:10362000FDF7BCF869460548FDF7C6F81FBD10B5A3
:10363000E1204002FDF763F910BD000000D000401A
:1036400001463039092901D8C8B2704701466139AD
:10365000052901D8573804E0014641390529F4D835
:103660003738C0B27047F8B5002506462C4611E041
:10367000705525280CD1301900904078FFF7E0FFF5
:10368000070100988078FFF7DBFF38187055A41CFD
:10369000641C6D1C305D0028EAD17055F8BDFFB583
:1036A000054681B01E460022AD4807E0B74203D16F
:1036B000D2001018436805E0521CD2B2D700C75B95
:1036C000002FF3D1A6480022503007E08E4203D1EC
:1036D00011010818C46805E0521CD2B21601865DBB
:1036E000002EF3D1002B00D19EA3002C00D1A2A468
:1036F000A6A2A9A1284601F0AFFE86B2A8192346CA
:10370000A7A2A5A101F0A8FE801984B22819A8A239
:10371000ACA1039B01F0A0FE001980B22818ABA356
:10372000ACA29DA101F098FEAEA1284602F0A2F83D
:1037300005B0F0BDF8B58A4D00240646503500911D
:1037400012E047197968009802F038F8002805D18E
:10375000B968009802F032F8002803D02001285CF4
:103760003070F8BD641CE4B22001295C0029E8D166
:103770000020F5E770B50A4604469BA1104602F00A
:1037800015F800260546002835D098A102F016F954
:10379000002819D096A1284602F010F9002815D06B
:1037A00095A1284602F00AF9002813D094A12846D2
:1037B00002F004F900280FD092A1284602F0FEF88A
:1037C00000280BD0267011E0012000E002202070BC
:1037D00085A106E0042002E0082000E0102020700F
:1037E00069A1002001F0E2FF050004D02946A01CD9
:1037F00001F0F8FF70BD267070BD70B50E4605462D
:10380000002404E06D1CFFF71BFF744304192878A3
:10381000002801D02028F5D1A0B270BDF8B51D4612
:1038200016460C4601F0CAFF0746204602F000F893
:10383000C4193146204601F0C1FF001B86B2324652
:103840002146284602F084F80020A855F8BDF0B5BE
:10385000002689B06D4C0D460746059606960796DC
:10386000002842D0002D40D005AB5EA250A1FFF74A
:10387000D5FF0A2105A8FFF7C0FF009064A13846D4
:1038800001F09CFF0099001D4654294601F096FF67
:1038900007002AD0284601F0CBFFC5196D1C5EA198
:1038A000284601F08BFF002803D1284601F0C0FF15
:1038B0004019401B0204120C13D0A654294620467E
:1038C00002F046F82046FFF7CEFE2B2120220020F2
:1038D00003E08B4200D12254401C235C002BF8D122
:1038E00000E02670204609B0F0BD0020FBE770B56F
:1038F0000D46002813D00146284601F073FF47A16A
:10390000284601F053FF044645A102F057F800286D
:1039100000D0641C2146284601F064FF012070BDE0
:1039200030B50D4689B00146684601F05BFF684638
:1039300000243CA101F03AFF0178302902D14178FE
:1039400078290AD00A21FFF758FF2855641C002067
:10395000E4B2042CEDD309B030BD1021801CF2E795
:10396000EC720000353031204E6F7420496D706C60
:10397000656D656E746564006170706C6963617417
:10398000696F6E2F6A736F6E0000000048545450C8
:103990002F312E310000000025732025730D0A0001
:1039A000436F6E74656E742D547970653A20000013
:1039B000436F6E74656E742D4C656E6774683A2043
:1039C0000000000025732025640D0A00636C6F73EE
:1039D00065000000436F6E6E656374696F6E3A2018
:1039E000000000000D0A00002000000047455400C0
:1039F0004845414400000000504F5354000000006F
:103A00005055540044454C4554450000A211002037
:103A10000D0A0D0A0000000026000000203F0000F3
:103A20002F0000002E00000070477047F84A002861
:103A300000D09060002900D0D160704730B5F54CBF
:103A4000082A02D90825257000E022706360E16031
:103A5000A060EF490020203103E01C5C0C54401CA6
:103A6000C0B29042F9D330BDF3B5FFB00C4682B07E
:103A70000121490201A801F068FF0026E5480096EF
:103A8000E34FC168B9618068F8612078042833D0B9
:103A900004DC01281CD0022804D119E008282BD00E
:103AA000102829D0FF20F63000902278DAA08199E2
:103AB00001F0C4FC6278E3A0819901F0BFFC2A46C2
:103AC000EAA0819901F0BAFC607800281CD03AE0A5
:103AD00001A9A01CFFF70BFF01ADEEA1284601F0E4
:103AE0006DFF002803D1ECA1284601F07BFE29469A
:103AF000601CFFF71FFED8E701ABE9A2E5A1A01CFF
:103B0000FFF78CFE01ADF2E72078294600F0C8FAF5
:103B1000002804DA801C16D1FF25963515E0C2B2C4
:103B2000009B2046F96900F050FB0646012803D0AF
:103B3000002E04DDC82508E0C925002605E0002E7A
:103B40000CD0F01C0CD0FF259535FF209130A843F8
:103B500009D0FF20F530A84305D009E0CC25F4E7D3
:103B6000FF259A35F1E72946F86900F037FB06464C
:103B7000009507223346B969819800F028F920782A
:103B8000022806D0002E04DDB2B2F969819800F057
:103B90001AF97FB004B0F0BDF1B586B000259D4B99
:103BA00000951F78002F2FD0994801784A1CD6B273
:103BB000024606702032515CB7424CB200D8057004
:103BC000002C21DBE3B20021565C9E4201D14EB2B3
:103BD00005E0491CC9B20829F6D30026F6438D49F1
:103BE0008B48C9680161B0494161B048A7043818E1
:103BF000FCF702FF152807D008DC00287ED0132828
:103C000002D1E0B2FDF7D9F807B0F0BD1628FBD01D
:103C1000172808D01C28F7D12146A5A001F00EFCDA
:103C2000902046431AE0A14810383818FCF7E4FE0B
:103C3000C00705D09D48012108383818FCF7DEFE82
:103C400090204643A248805D002812D003287ED0F1
:103C50000428D9D121469FA001F0F0FB9C4970189F
:103C600080308560C56045608D55E0B200F09BF8FE
:103C7000CAE7A5483818406A00B20028C4DD01210F
:103C8000C902884200DD0846614982B2E0B2096992
:103C9000FDF726FA00B20028B6DB2A465C4D2969FA
:103CA0000A546869FFF766FD98A001F0C7FBA0A061
:103CB000296901F0C3FB9FA001F0C0FB9248D938ED
:103CC0003818FCF799FE6946087004908E48DA3877
:103CD0003818FCF791FE6946487003908A48DB3833
:103CE0003818FCF789FE6946887002908648DC38EF
:103CF0003818FCF781FE6946C87000E038E0009093
:103D00006A48D0303818006A87B257A001F096FB95
:103D1000214691A001F092FB01979AA0029B039A81
:103D2000049901F08BFB21469CA001F087FBE0B2D7
:103D30006969FFF799FE6648311880318968002962
:103D400002D0032101E002E0042181555CE7214615
:103D50009FA001F073FB2E49E0B20022896900F0B8
:103D600032F85B483118803189680029ECD04BE784
:103D70000698002801D150200690E0B200230121CE
:103D8000069AFCF7AFFFA042E0D121469DA0069A1B
:103D900001F054FB38E71E484168491C41607047F8
:103DA0001B48406870478104404810B52038081807
:103DB00004460821FCF722FE2046FCF71DFE0028E1
:103DC000FAD1012010BD10B5FDF7FAF810BD70B59D
:103DD0001C46114622460E4C0546049BA069FFF77F
:103DE0005EFCA06901F024FD82B22846A169FDF7BE
:103DF000E7F8A06901F01CFD82B229468CA001F011
:103E00001DFB294699A0A26901F018FB70BD0000B6
:103E1000F0000020341A00200D0A3E20485454506F
:103E2000536F636B65745B25645D203A204854547E
:103E300050204D6574686F64203D20252E34780D28
:103E40000A0000003E2048545450536F636B657461
:103E50005B25645D203A205265717565737420544A
:103E6000797065203D2025640D0A00003E204854ED
:103E70005450536F636B65745B25645D203A205228
:103E800065717565737420555249203D2025730D69
:103E90000A0000002F000000696E646578000000D1
:103EA00020485454500000002418002030000146DF
:103EB0003E2048545450536F636B65745B25645DBA
:103EC000203A20436C4F53455F574149540D0A0037
:103ED000A41300203E2048545450536F636B657404
:103EE0005B25645D203A205B53746174655D2053EB
:103EF000544154455F485454505F5245535F444FBA
:103F00004E450D0A00000000000201463E204854C4
:103F10005450205265717565737420535441525446
:103F2000203D3D3D3D3D3D3D3D3D3D0D0A000000F8
:103F3000257300003E204854545020526571756529
:103F4000737420454E44203D3D3D3D3D3D3D3D3D4E
:103F50003D3D3D0D0A0000003E2048545450536F33
:103F6000636B65745B25645D203A2048545450208F
:103F700052657175657374207265636569766564F1
:103F80002000000066726F6D2025642E25642E25AA
:103F9000642E2564203A2025640D0A003E204854F2
:103FA0005450536F636B65745B25645D203A205BEE
:103FB00053746174655D2053544154455F485454B3
:103FC000505F5245515F444F4E450D0A00000000BE
:103FD0003E2048545450536F636B65745B25645D99
:103FE000203A205B53746174655D205354415445FD
:103FF0005F485454505F5245535F494E50524F43AF
:104000000D0A00003E2048545450536F636B657492
:104010005B25645D203A20534552564552204F504F
:10402000454E2C20506F72743A2025640D0A000012
:104030003E2048545450536F636B65745B25645D38
:10404000203A205B53656E645D20485454502052E2
:104050006573706F6E736520486561646572205B7F
:10406000202564205D627974650D0A003E20485465
:104070005450536F636B65745B25645D203A205B1D
:1040800053656E645D204854545020526573706FC0
:104090006E7365204865616465720D0A20257300A2
:1040A000F3B5FFB090B000200027FF4304460B900B
:1040B00009970EA801F096FBFEA10EA801F076FB71
:1040C0000190002804D0012635460CE0042D03D3CE
:1040D00038467FB012B0F0BDAA00761C01A96D1C55
:1040E0008850F6B2EDB2F3A1002001F05FFB00288A
:1040F000ECD1002558E0F0480A99081841684EA80C
:1041000001F070FBEBA14EA801F050FB019A0146B3
:10411000104601F053FC002836D10127641C2CE026
:10412000B80001A908900858002816D0E3A000990B
:1041300001F044FC002810D1089801A9085801F0AA
:1041400077FB142809D8089801A90958DC4801F020
:1041500049FB089801A908580090B74207D208996E
:1041600001A84058009901F029FC002801D0002442
:104170000AE0641C7F1CE4B2FFB2CEA1002001F073
:1041800015FB00900028CBD1A6420AD101200B904C
:10419000C9490A98095C8F98814202D168B2099096
:1041A0000CE000246D1CEDB22901C3480A91415C6A
:1041B0000029A0D10B98012805D10998002802DA1E
:1041C0000120C0430990099883E708461101BA4AC3
:1041D00010B589188A68904700B210BDFEB50E462A
:1041E000002104460A46B74825E0B34221D1D10058
:1041F000081845680121B4A3B5A2C90220462D1DA7
:1042000000F0C1FF07B2B4A0019001210296009511
:10421000E019B3A3B4A2C90200F0B5FFC01905B2FA
:1042200001216019B3A2C90200F0ADFF401901B22B
:1042300005E0521CD2B2D300C35A002BD5D1084698
:10424000FEBDF0B599B0044605A90120FDF738FD83
:10425000A9A00127FF020090ABA3ADA239462046DA
:1042600000F091FF85B26019ABA3ACA2394600F013
:104270008AFF401986B20025AA49A8000A58AB4B0C
:10428000A9A118586B4607C3A019A9A3A9A239462A
:1042900000F079FF80196D1CEDB286B2042DEBD3CE
:1042A0000125A019ED02A7A22946401E00F06BFFD0
:1042B0008019401E86B2A019A4A398A2294600F036
:1042C00062FF801986B2002733E0002503E08842B0
:1042D00006D06D1CEDB2A048EB00C05C0028F6D102
:1042E00075486B461018039042686846417F007F0E
:1042F00007C36846C37E827E98A10BA801F0ACF884
:104300009549EB0003985918C0684968049099A230
:104310009BA302910BA80193039200900121A01985
:1043200099A39AA2C90200F02EFF80197F1C86B2C1
:10433000FFB261483A01815C0029C6D1A019012170
:1043400098A2C902401E00F01EFF8019401E00B254
:1043500019B0F0BDF0B50127FF0287B0054693A361
:104360005BA2394600F00FFF84B2FFF747F906461B
:10437000FFF741F90190FFF73BF90090FFF735F99E
:1043800001998CA28DA303930592049106968CA1AA
:10439000009A6B4607C328198AA38CA2394600F0FD
:1043A000F2FE001984B2281952A2394600F0EBFE41
:1043B000001900B207B0F0BDF0B58FB0044614216B
:1043C0000AA801F0C2FA04A90120FDF779FC01272F
:1043D000FF0285A386A23946204600F0D4FE86B2AD
:1043E0006846437D027DC17C807C6D460FC5684672
:1043F000437C027C80A10AA801F02EF80AADA01926
:1044000085A386A23946009500F0BDFE801986B2CC
:104410006846417E007E019100906846C37D827DA2
:1044200080A10AA801F018F8A01981A37BA239463F
:10443000009500F0A8FE801986B208A8417800789F
:10444000019100906846C37F827F76A10AA801F09F
:1044500003F8A01977A371A23946009500F093FEE6
:10446000801986B26846417F007F019100906846BE
:10447000C37E827E6BA10AA800F0EEFFA0196EA396
:1044800066A23946009500F07EFE801986B208A823
:10449000417900790191009008A8C378827861A1E0
:1044A0000AA800F0D9FFA01964A35CA239460095C0
:1044B000C6E000002F0000005C7400003A69640050
:1044C000481A0020EC7200006572726F72000000E2
:1044D0007B20733A20000000636F646500000000D9
:1044E0006D657373616765007B20733A20732C20C0
:1044F000733A2069207D000077697A77696B692DAE
:104500003735303065636F00746172676574000021
:104510007B20733A20732C00696F0000733A205B94
:1045200000000000D400002070696E00C40000206C
:10453000696400007B20733A20732C20733A207347
:10454000207D2C00205D2C20000000007265736F20
:104550007572636500000000BC72000068747470BE
:104560003A2F2F25642E25642E25642E25642F25B1
:10457000730000006465736372697074696F6E0024
:104580006D6574686F640000757269007B20733A12
:1045900020732C20733A20732C20733A2073207DD3
:1045A0002C000000205D207D000000007570746903
:1045B0006D6500006D736563000000007365630046
:1045C0006D696E00686F7572000000007B20733AA1
:1045D00020692C20733A20692C20733A20692C2002
:1045E000733A2069207D00006E6574696E666F0005
:1045F0007B20733A207B2000252E32783A252E32FC
:10460000783A252E32783A252E32783A252E32788D
:104610003A252E32780000006D616300733A2073F2
:104620002C00000025642E25642E25642E256400B0
:104630006970000067770000736E0000646E73009D
:1046400000F0A1FD801985B208A88079022812D057
:1046500086A00090601988A389A2394600F093FDD6
:10466000401985B2601988A2394600F08CFD4019C6
:1046700000B20FB0F0BD86A0EBE7F0B585B00646FE
:10468000FEF720FC7030417802780802824910431E
:104690000DD082A383A2304600F075FD85B20024C0
:1046A000824F385DFEF70CFE012808D027E080A07D
:1046B00000907AA380A2304600F065FD2CE07B4894
:1046C000005DFEF796FE01282AD07EA77748005DA0
:1046D000FEF79EFE012825D07CA07EA180A203913A
:1046E0000192049080490297A00008580090701928
:1046F0007EA37F4A684900F046FD401985B2641CDC
:10470000E4B2042CCCD37A4A701918326249401EA4
:1047100000F039FD4019401E80B200B205B0F0BD76
:1047200074A7D3E775A0D8E77CB506460020694694
:104730008880744800F085F85C4D0446285DFEF7DB
:10474000BFFD0021C943002810D0002C0EDB285DDE
:1047500001A9FEF778FE684680880090694B6AA23E
:104760004D49304600F00FFD00B27CBD08467CBDCF
:10477000F0B5074685B0634800F063F84B4D04463A
:10478000285DFEF79DFD0021C943002823D0002CA1
:1047900021DB285DFEF72DFE012818D049A6285DF3
:1047A000FEF736FE012814D048A04AA14CA203917E
:1047B000019204904C490296A000085800904BA327
:1047C0004B4A3549384600F0DEFC00B2A6E749A660
:1047D000E5E74AA0E9E70846A0E770B5494800F0D8
:1047E00030F8324D0446285DFEF76AFD012807D0F7
:1047F000002C08DB285D0121FEF793FD012070BD30
:104800000220C04370BD0020C04370BD002070472F
:104810000020704770B53B4800F013F8234D044664
:10482000285DFEF74DFD0021C943002807D0002C6C
:1048300005DB285D0021FEF774FD002070BD0846F1
:1048400070BDF8B50025ED43274E07460024A000B3
:104850003158384601F0B2F8002805D0641CE4B2A3
:10486000042CF4D32846F8BD65B2FBE76469736194
:10487000626C656400000000646863700000000002
:10488000733A207300000000207D207D00000000AE
:10489000656E61626C656400000800007573657286
:1048A000696F00007B20733A205B0000C00000208D
:1048B0004E554C4C000000007B20733A2073207D45
:1048C000000000006469676974616C00696E70754E
:1048D00074000000646972656374696F6E000000A3
:1048E0007479706500000000C40000206964000055
:1048F0008C450000616E616C6F6700006F757470AD
:1049000075740000481A00207B20733A2069207DCE
:104910000000000003684168994208D20A78202A02
:104920000AD0092A08D00D2A06D00A2A04D09942B2
:1049300005D30020C0437047491C4160ECE708786C
:104940007047F8B50F46044641698068164600294D
:1049500010D02269E1688A420CDB002908D04D00A2
:10496000290100F012FD00280CD0E560A06003E0F2
:104970006425F5E7002808D0E068002805D0216903
:10498000814204DB0220C043F8BD0020F8BDA068CE
:10499000090147502069A16800010C300E542069BC
:1049A000401C2061F1E730B58468002C09D0C36851
:1049B000002B06D0002901DB8B4204DC0020C04321
:1049C00030BD002030BD0B01E558551B1A1DA55008
:1049D00002698068511A491E0833C150F1E7F8B5E1
:1049E00005460024222100F0D8FB002818DB012214
:1049F00028466968FFF7A5FFA71E002810DB25E001
:104A00001478210601D4012606E021090901E029D4
:104A100009D0F02905D00226202C06DA0020C04358
:104A2000F8BD0426F8E70326F6E7811AB14213DD44
:104A30005C2C02D0222C11D005E0501C00F0D1FBE0
:104A40000028EDDD36186868801968606A68286893
:104A50008242D5D3222C09D03846F8BD2969284690
:104A6000491EFFF7A0FF6868401C68600020F8BD81
:104A700070B50446FFF74EFF0546022220466168E6
:104A8000FFF75FFF002844DB60682D2D01D1401C3B
:104A9000606001222168D243884239D200785310E5
:104AA00030380A283CD2606801E0401C60608842CF
:104AB00003D20578303D092DF7D9884214D2057804
:104AC0002E2D11D1401C6060884221D200783038F0
:104AD0000A2825D2606801E0401C6060884203D249
:104AE0000578303D092DF7D9884223D20578652D08
:104AF00001D0452D1ED1401C6060884208D2057847
:104B00002B2D01D02D2D01D1401C6060884201D396
:104B1000104670BD007830380A2801D2606803E082
:104B2000184670BD401C6060884203D20278303A5B
:104B3000092AF7D9216902462046491EFFF733FFAB
:104B4000002070BDF8B50F46044603CC1546461A42
:104B5000083C1A462046FFF7F4FE002805DB00203B
:104B60000DE0B04202DB0120C043F8BD61683A5C51
:104B7000095C914202D00020C043F8BD401CA8420D
:104B8000EFDB60684219626021692046491EFFF729
:104B90000AFF0028F1DB0020F8BD70B504467B2138
:104BA00000F0FBFA002828DB616803222046491E3A
:104BB000FFF7C7FE002820DB25696D1E0CE02046AC
:104BC00000F049FB002818DB2046FFF7A3FE2C2845
:104BD00002D16068401C60602046FFF79BFE7D2884
:104BE000EDD17D21204600F0D8FA002805DB2946CA
:104BF00020466268FFF7D7FE002070BD10B504465E
:104C0000FFF788FE362845D012DC322842D008DC77
:104C1000222824D02D283DD030283BD0312819D14E
:104C200038E0332836D0342834D0352812D131E05A
:104C300066282BD008DC37282CD038282AD03928F1
:104C400028D05B2806D112E06E2814D0742816D024
:104C50007B2808D0401C24D00020C04310BD204633
:104C6000FFF7BDFE19E02046FFF797FF15E020464D
:104C700000F01AF811E006230422F8A102E0042350
:104C80001A46F8A12046FFF75DFF06E005231A4605
:104C9000F6A1F7E72046FFF7EBFE0028DEDB002059
:104CA00010BD0120C04310BD70B504465B2100F06B
:104CB00074FA002828DB616807222046491EFFF7A6
:104CC00040FE002820DB25696D1E0CE02046FFF722
:104CD00095FF002818DB2046FFF71CFE2C2802D188
:104CE0006068401C60602046FFF714FE5D28EDD12F
:104CF0005D21204600F051FA002805DB29462046B8
:104D00006268FFF750FE002070BD10B50446406891
:104D1000002802D02168814202D20020C04310BD89
:104D2000814202D10120C04310BD7B21204600F00A
:104D300048FA002818D05B21204600F042FA0028EB
:104D4000F2D12046FFF7B0FF0028EDDB002220461D
:104D50006168FFF7F6FD0028E6DB204662682169FE
:104D6000FFF721FE002010BD2046FFF716FFEBE7FE
:104D7000F0B587B00F4604461D4616461821684612
:104D800000F0E3FDE0196946039551C16846FFF75D
:104D9000BCFF002801DB0198001B07B0F0BD30B557
:104DA00087B00D4604461821684600F0CEFD601914
:104DB00000900120059001946846FFF7A6FF0028A7
:104DC000029803DA00F0BBFA0020029007B030BD71
:104DD000FEB584E000229646531E02220092002275
:104DE00000E0521C8C5C002C03D05B2C01D02E2CDC
:104DF000F7D10192027B5B2D02D0032A76D11DE010
:104E0000072A73D14A78303A0A2A6FD20023012246
:104E100008E02546303D0A2D68D20A256B43303B19
:104E2000E318521C8C5C5D2C01D0002CF1D1521C7B
:104E3000E4B201925D2C59D10122009210308446D7
:104E400000228038866F3AE0581C05D11401604674
:104E50002018007B012849D19E4518D0581C1AD132
:104E600015016046281844680198844213D16046B1
:104E7000405902900024019D00E0641CAC4204DA19
:104E8000029F085D3F5DB842F7D0AC4203D1009865
:104E90001218521E15E000981018040160462018E0
:104EA0000446203C247F072C01D0032C02D18038FB
:104EB000806F8218009812187046401C86469642F1
:104EC000C2DC964212D00198091808782E2800D129
:104ED000491C087800280BD01201604610180029E0
:104EE00004D00D78002D01D074E7FFE70020FEBD4F
:104EF000110160460818FEBD70B586B00C46064626
:104F000013465CA21421684600F0BCFA0546002C4A
:104F100000DC002422466946304600F019FD284690
:104F200006B070BD70B588B00C460546009201937E
:104F300051A2142102A800F0A5FA0646002C00DCBC
:104F40000024224602A9284600F002FD304608B09F
:104F500070BDF0B5D618411822230446884200D20D
:104F60000370601C5C274EE01578521C0C2D28D075
:104F700006DC082D1DD0092D3CD00A2D06D129E0D4
:104F80000D2D2FD0222D04D05C2D0AD088421FD3A6
:104F900038E0884200D20770401C884232D2037049
:104FA00030E0884200D20770401C88422AD2077045
:104FB00028E0884200D20770401C884222D2622535
:104FC00006E0884200D20770401C88421AD266254B
:104FD000057017E0884200D20770401C884211D249
:104FE0006E25F5E7884200D20770401C884209D23E
:104FF0007225EDE7884200D20770401C884201D23A
:105000007425E5E7401CB242AED3884200D203705B
:10501000401C884201D200210170001BF0BDF8B590
:105020001E4613460C1E07460EDD002E0CDDA64262
:1050300001DA354600E00D462A46194600F026FC06
:10504000A54201DA002078553046F8BDFFB581B0A1
:10505000164604464518074658E000006E756C6C0D
:1050600000000000747275650000000066616C73DA
:1050700065000000256C640025670000542871D08D
:1050800014DC2C2829D008DC092826D00A2824D0B2
:105090000D2822D020281DD11FE03A281DD04628F7
:1050A00064D04E2867D0532814D14FE0692819D016
:1050B00008DC562837D05B280FD05D280DD0662835
:1050C00008D117E0732833D0762827D07B2804D066
:1050D0007D2802D0002005B0F0BDAC4200D2207087
:1050E000641C12E00498291B04C804902046FFF7B2
:1050F00003FF09E00498291BC01DC008C0000CC8AC
:1051000004902046FFF70EFF0419761C3078002823
:10511000B4D1AC4200D22070E01BDCE70498291B1C
:105120000CC804900EE00498291B0CC8049026E0DB
:10513000049802C804900091084600F079FB009A98
:10514000291B03462046FFF704FFDDE7049802C849
:1051500004900091084600F06BFB291B0346009A5F
:105160000DE0FFE7291B0423734A08E0724A291B5C
:105170000523083203E0704A291B0423083A20461D
:10518000FFF74DFFC0E70FB410B505AB049AFFF76A
:105190005DFF10BC08BC04B0184770B50D4604464E
:1051A000FFF7B8FBA84204D16068401C6060002093
:1051B00070BD401C02D00020C04370BD0120C04320
:1051C00070BD10B50C46FFF7A5FBA04201D1002031
:1051D00010BD401C02D00020C04310BD0120C043C0
:1051E00010BD70B5044601220078D24355106628E0
:1051F0002BD008DC222828D02F2826D05C2824D0C9
:10520000622820D121E06E281FD072281DD074287A
:105210001BD0752817D1062919DB607800F050F8EB
:10522000002810D0A07800F04BF800280BD0E078D0
:1052300000F046F8002806D0207900F041F8002858
:1052400001D0052070BD284670BD022901DA104644
:1052500070BD012070BD70B50546FFF75BFB0446CD
:1052600000F023F8002803D0284600F037F809E0C2
:10527000222C04D0641C15D00020C04370BD2846E9
:10528000FFF7ADFB002800DAF8DB3A212846FFF7EC
:1052900084FF0028F2DB2846FFF7B0FC0028EDDB96
:1052A000002070BD0120C04370BD0146613919293D
:1052B00002D94138192801D80120704700207047D1
:1052C00001463039092905D93139052902D9413832
:1052D000052801D8012070470020704710B504460A
:1052E000FFF718FBFFF7E1FF002808D00122204656
:1052F0006168FFF726FB002803DB606805E00020FB
:10530000C04310BD6068401C6060216888420BD2B9
:1053100000785F28F6D0FFF7C8FF0028F2D1606858
:10532000007830380928EDD921692046491E626885
:10533000FFF739FB002010BD64500000704770B5C6
:105340000446051F00F03CFF0068002C1AD044689A
:1053500001E020466468002C01D0AC42F9D301681A
:105360000A18AA4204D12A6805468918016000E09B
:10537000456028684119A14205D1616869602168CA
:105380004018286070BD6C6070BD70B50D46064653
:10539000041F00F015FF0268002D09D0002E0CD06C
:1053A00028460B30C108C900A9420AD2002070BDAE
:1053B0003046FFF7C4FF002070BD284600F04AFFCA
:1053C00070BD23688B4208D35A1A082A25D3601867
:1053D00004C02160FFF7B3FF1FE0506801E0024600
:1053E0004068002801D0A042F9D31D19854216D18A
:1053F00005685B198B4212D35D1A082D0AD34568E4
:1054000063185D60256800682818401A18602160DC
:10541000536002E0236040685060201D70BD081F8B
:1054200000F018FF050007D02268211D121FFAF7AF
:10543000B1FE201DFFF783FF284670BD0FB405495C
:1054400010B503AA029801F0D5F910BC08BC04B04D
:10545000184700009C0000200FB41CB5084B06AA9A
:105460007B4469460090059801F08DF904460020C0
:10547000694601F09BF920461CBC08BC04B01847E3
:10548000491300000FB47CB50C0009AA009001D0AC
:105490000019401E094B7B4469460190089801F0B1
:1054A00072F9002C054603D06946002001F07EF910
:1054B00028467CBC08BC04B0184700001D1300003F
:1054C00070B5044685690068C10601D5302600E044
:1054D0002026C00707D070BD62683046A16890479B
:1054E000206A401C20626D1EF6D570BD70B5044662
:1054F00085690078C00707D170BD6268A168202067
:105500009047206A401C20626D1EF6D570BD70B5B4
:105510000C460546012A05D02878800600D5EA69A0
:10552000002302E0012305E05B1C934202D2E05C11
:105530000028F9D1A869E618C01AA861286AC0181D
:1055400028622846FFF7BCFF04E06A682078A96853
:10555000641C9047B442F8D32846FFF7C7FF70BDDC
:10556000F7B5002575291068009914A611D0C0461A
:10557000C046002802DA404211A608E000990968F6
:105580008A0701D50FA602E0490704D50EA601251A
:1055900001E0C046C046009F0024243704E001F02B
:1055A00061F930313955641C0028F8D12B46324658
:1055B0002146009800F07FFEFEBD000000000000C4
:1055C0002D0000002B0000002000000070B50446F4
:1055D0000D4621461068C046C0462188090502D5FF
:1055E0000F4A7A4402E00E4A7A440E3223460021E2
:1055F000243305E006070009360F965D5E54491C0A
:105600000028F7D120780023000705D5702D03D09E
:10561000002901D002231132204600F04CFE70BD5B
:10562000261F0000F3B50446002081B0206220460A
:10563000E1688847002872D0252802D06268A168F6
:10564000ABE0594F00267F442046E1688847202878
:10565000054608DB312D06D278192038007800285D
:1056600001D00643F0E7B00701D5042086430020AF
:10567000E0610746A0612A2D0AD0284601F038FDD6
:10568000002827D0B8000019303D0090856119E04E
:105690000298BA00121902C8916102902046E1688E
:1056A0008847012F054617D1E06900281FDA20201E
:1056B00086431CE000980A218069484300994019FC
:1056C000303888612046E1688847054601F010FDC2
:1056D0000028EFD1012F0AD02E2D08D12046E168F5
:1056E00088470546202006437F1C022FC3DBA069A4
:1056F000002803DA4042A06101200643F00701D0F0
:10570000102086436C2D0BD0682D09D04C2D3CD039
:105710006A2D38D0742D38D07A2D36D016E040E07E
:10572000E1682F4620468847B842054609D16C2FCC
:1057300029D001208002E1680643204688470546BB
:1057400004E06C2F1DD0FF2001300643002D28D02F
:1057500028464138192803D80120C00206432035C5
:10576000204626602946029A1646FAF7DBFC0028F6
:1057700010D001280BD0F61DF008C00008300290B0
:1057800055E74020E1E78020D5E70020D3E7361D2C
:1057900002964CE762682846A1689047206A401C40
:1057A00044E7206AFEBD0000EA1E000010B5024A70
:1057B00001F034F810BD00001801002030B5054696
:1057C0000B462A461C781078521C5B1C002801D01E
:1057D000A042F7D0002C03D0002802D06D1CEFE7C8
:1057E000284630BD034670B502460B439B070FD1D8
:1057F0000E4CE60100E008C208C91D1B9D4335425E
:10580000F9D0D9B21170521C00290DD01B0AF8E74B
:105810000B78491C1370521C002B05D00B78491CC7
:105820001370521C002BF3D170BD00000101010167
:1058300030B5441C03E00178401C00290DD08107DD
:10584000F9D10B4BDD0104C8D11A91432940FAD09C
:10585000001B0A0603D0C01E30BD001B30BD0A0469
:1058600001D0801E30BD0902FCD0401E30BD0000BA
:1058700001010101421E5378521C002BFBD10B7811
:10588000491C1370521C002BF9D17047F8B5042A3B
:105890002CD3830712D00B78491C0370401C521E76
:1058A00083070BD00B78491C0370401C521E8307E2
:1058B00004D00B78491C0370401C521E8B079B0FB1
:1058C00005D0C91ADF002023DE1B08C90AE0FAF759
:1058D00061FCF8BD1D4608C9FD401C46B4402C4380
:1058E00010C0121F042AF5D2F308C91A521EF0D4B0
:1058F0000B78491C0370401C521EEAD40B78491CDB
:105900000370401C012AE4D409780170F8BD01E05D
:1059100004C0091F0429FBD28B0701D50280801C1B
:10592000C90700D00270704700290BD0C30702D00E
:105930000270401C491E022904D3830702D502804D
:10594000801C891EE3E70022EEE70022DFE700006B
:10595000F8B507460B4639461943890713D1164C4B
:10596000E601042A0FD302CB0D1B8D43354202D131
:1059700002C0121FF5E7CBB20370401C521E002B71
:1059800013D0090AF7E7002A14D01978521E5B1CBD
:105990000170401C002908D0002A0BD01978521E33
:1059A0005B1C0170401C0029EDD1002A02D0114679
:1059B000FFF7C9FF3846F8BD01010101024670B585
:1059C0000A4392072AD11E4DEE0104C808C9541B90
:1059D0009443344017D0D0B2D9B2401A21060143C3
:1059E00010D190B299B2401A210401430AD1100299
:1059F0001902000A090A401A2102014302D1100EBD
:105A0000190E401A70BD9A42DFD010BA19BA8842F6
:105A100001D9012070BD0020C04370BD02780B7811
:105A2000401C491C002A09D09A4207D102780B7801
:105A3000401C491C002A01D09A42EFD0D01A70BDF8
:105A400001010101002203098B422CD3030A8B427E
:105A500011D300239C464EE003460B433CD4002266
:105A600043088B4231D303098B421CD3030A8B4278
:105A700001D394463FE0C3098B4201D3CB01C01A46
:105A8000524183098B4201D38B01C01A5241430911
:105A90008B4201D34B01C01A524103098B4201D3FF
:105AA0000B01C01A5241C3088B4201D3CB00C01A6C
:105AB000524183088B4201D38B00C01A52414308E4
:105AC0008B4201D34B00C01A5241411A00D2014609
:105AD0005241104670475DE0CA0F00D049420310A2
